{
  "contractName": "ENCNFT",
  "abi": [
    {
      "inputs": [
        {
          "internalType": "address",
          "name": "_marketplace",
          "type": "address"
        }
      ],
      "stateMutability": "nonpayable",
      "type": "constructor"
    },
    {
      "anonymous": false,
      "inputs": [
        {
          "indexed": true,
          "internalType": "address",
          "name": "owner",
          "type": "address"
        },
        {
          "indexed": true,
          "internalType": "address",
          "name": "approved",
          "type": "address"
        },
        {
          "indexed": true,
          "internalType": "uint256",
          "name": "tokenId",
          "type": "uint256"
        }
      ],
      "name": "Approval",
      "type": "event"
    },
    {
      "anonymous": false,
      "inputs": [
        {
          "indexed": true,
          "internalType": "address",
          "name": "owner",
          "type": "address"
        },
        {
          "indexed": true,
          "internalType": "address",
          "name": "operator",
          "type": "address"
        },
        {
          "indexed": false,
          "internalType": "bool",
          "name": "approved",
          "type": "bool"
        }
      ],
      "name": "ApprovalForAll",
      "type": "event"
    },
    {
      "anonymous": false,
      "inputs": [
        {
          "indexed": false,
          "internalType": "uint256",
          "name": "",
          "type": "uint256"
        }
      ],
      "name": "NFTMinted",
      "type": "event"
    },
    {
      "anonymous": false,
      "inputs": [
        {
          "indexed": true,
          "internalType": "address",
          "name": "from",
          "type": "address"
        },
        {
          "indexed": true,
          "internalType": "address",
          "name": "to",
          "type": "address"
        },
        {
          "indexed": true,
          "internalType": "uint256",
          "name": "tokenId",
          "type": "uint256"
        }
      ],
      "name": "Transfer",
      "type": "event"
    },
    {
      "inputs": [
        {
          "internalType": "address",
          "name": "to",
          "type": "address"
        },
        {
          "internalType": "uint256",
          "name": "tokenId",
          "type": "uint256"
        }
      ],
      "name": "approve",
      "outputs": [],
      "stateMutability": "nonpayable",
      "type": "function"
    },
    {
      "inputs": [
        {
          "internalType": "address",
          "name": "owner",
          "type": "address"
        }
      ],
      "name": "balanceOf",
      "outputs": [
        {
          "internalType": "uint256",
          "name": "",
          "type": "uint256"
        }
      ],
      "stateMutability": "view",
      "type": "function",
      "constant": true
    },
    {
      "inputs": [
        {
          "internalType": "uint256",
          "name": "tokenId",
          "type": "uint256"
        }
      ],
      "name": "getApproved",
      "outputs": [
        {
          "internalType": "address",
          "name": "",
          "type": "address"
        }
      ],
      "stateMutability": "view",
      "type": "function",
      "constant": true
    },
    {
      "inputs": [
        {
          "internalType": "address",
          "name": "owner",
          "type": "address"
        },
        {
          "internalType": "address",
          "name": "operator",
          "type": "address"
        }
      ],
      "name": "isApprovedForAll",
      "outputs": [
        {
          "internalType": "bool",
          "name": "",
          "type": "bool"
        }
      ],
      "stateMutability": "view",
      "type": "function",
      "constant": true
    },
    {
      "inputs": [],
      "name": "marketplace",
      "outputs": [
        {
          "internalType": "address",
          "name": "",
          "type": "address"
        }
      ],
      "stateMutability": "view",
      "type": "function",
      "constant": true
    },
    {
      "inputs": [],
      "name": "name",
      "outputs": [
        {
          "internalType": "string",
          "name": "",
          "type": "string"
        }
      ],
      "stateMutability": "view",
      "type": "function",
      "constant": true
    },
    {
      "inputs": [
        {
          "internalType": "uint256",
          "name": "tokenId",
          "type": "uint256"
        }
      ],
      "name": "ownerOf",
      "outputs": [
        {
          "internalType": "address",
          "name": "",
          "type": "address"
        }
      ],
      "stateMutability": "view",
      "type": "function",
      "constant": true
    },
    {
      "inputs": [
        {
          "internalType": "address",
          "name": "from",
          "type": "address"
        },
        {
          "internalType": "address",
          "name": "to",
          "type": "address"
        },
        {
          "internalType": "uint256",
          "name": "tokenId",
          "type": "uint256"
        }
      ],
      "name": "safeTransferFrom",
      "outputs": [],
      "stateMutability": "nonpayable",
      "type": "function"
    },
    {
      "inputs": [
        {
          "internalType": "address",
          "name": "from",
          "type": "address"
        },
        {
          "internalType": "address",
          "name": "to",
          "type": "address"
        },
        {
          "internalType": "uint256",
          "name": "tokenId",
          "type": "uint256"
        },
        {
          "internalType": "bytes",
          "name": "data",
          "type": "bytes"
        }
      ],
      "name": "safeTransferFrom",
      "outputs": [],
      "stateMutability": "nonpayable",
      "type": "function"
    },
    {
      "inputs": [
        {
          "internalType": "address",
          "name": "operator",
          "type": "address"
        },
        {
          "internalType": "bool",
          "name": "approved",
          "type": "bool"
        }
      ],
      "name": "setApprovalForAll",
      "outputs": [],
      "stateMutability": "nonpayable",
      "type": "function"
    },
    {
      "inputs": [
        {
          "internalType": "bytes4",
          "name": "interfaceId",
          "type": "bytes4"
        }
      ],
      "name": "supportsInterface",
      "outputs": [
        {
          "internalType": "bool",
          "name": "",
          "type": "bool"
        }
      ],
      "stateMutability": "view",
      "type": "function",
      "constant": true
    },
    {
      "inputs": [],
      "name": "symbol",
      "outputs": [
        {
          "internalType": "string",
          "name": "",
          "type": "string"
        }
      ],
      "stateMutability": "view",
      "type": "function",
      "constant": true
    },
    {
      "inputs": [
        {
          "internalType": "uint256",
          "name": "",
          "type": "uint256"
        },
        {
          "internalType": "uint256",
          "name": "",
          "type": "uint256"
        }
      ],
      "name": "tokenHistoryEncryption",
      "outputs": [
        {
          "internalType": "address",
          "name": "currentOwner",
          "type": "address"
        },
        {
          "internalType": "string",
          "name": "encryptKeyForOwner",
          "type": "string"
        }
      ],
      "stateMutability": "view",
      "type": "function",
      "constant": true
    },
    {
      "inputs": [
        {
          "internalType": "address",
          "name": "",
          "type": "address"
        },
        {
          "internalType": "uint256",
          "name": "",
          "type": "uint256"
        }
      ],
      "name": "tokenOwnersOfToken",
      "outputs": [
        {
          "internalType": "uint256",
          "name": "",
          "type": "uint256"
        }
      ],
      "stateMutability": "view",
      "type": "function",
      "constant": true
    },
    {
      "inputs": [
        {
          "internalType": "uint256",
          "name": "tokenId",
          "type": "uint256"
        }
      ],
      "name": "tokenURI",
      "outputs": [
        {
          "internalType": "string",
          "name": "",
          "type": "string"
        }
      ],
      "stateMutability": "view",
      "type": "function",
      "constant": true
    },
    {
      "inputs": [
        {
          "internalType": "address",
          "name": "from",
          "type": "address"
        },
        {
          "internalType": "address",
          "name": "to",
          "type": "address"
        },
        {
          "internalType": "uint256",
          "name": "tokenId",
          "type": "uint256"
        }
      ],
      "name": "transferFrom",
      "outputs": [],
      "stateMutability": "nonpayable",
      "type": "function"
    },
    {
      "inputs": [
        {
          "internalType": "string",
          "name": "_tokenURI",
          "type": "string"
        },
        {
          "internalType": "string",
          "name": "decryptKeyForOwner",
          "type": "string"
        }
      ],
      "name": "mint",
      "outputs": [],
      "stateMutability": "nonpayable",
      "type": "function"
    },
    {
      "inputs": [
        {
          "internalType": "address",
          "name": "_to",
          "type": "address"
        },
        {
          "internalType": "uint256",
          "name": "_tokenId",
          "type": "uint256"
        },
        {
          "internalType": "bytes",
          "name": "_data",
          "type": "bytes"
        }
      ],
      "name": "transferTokenWithEncryption",
      "outputs": [],
      "stateMutability": "nonpayable",
      "type": "function"
    },
    {
      "inputs": [
        {
          "internalType": "uint256",
          "name": "_tokenId",
          "type": "uint256"
        }
      ],
      "name": "getTokenInfoLastOwner",
      "outputs": [
        {
          "internalType": "address",
          "name": "owner",
          "type": "address"
        },
        {
          "internalType": "string",
          "name": "encData",
          "type": "string"
        }
      ],
      "stateMutability": "view",
      "type": "function",
      "constant": true
    },
    {
      "inputs": [
        {
          "internalType": "address",
          "name": "owner",
          "type": "address"
        }
      ],
      "name": "getIdsByAddress",
      "outputs": [
        {
          "internalType": "uint256[]",
          "name": "",
          "type": "uint256[]"
        }
      ],
      "stateMutability": "view",
      "type": "function",
      "constant": true
    }
  ],
  "bytecode": "0x60806040523480156200001157600080fd5b506040516200200d3803806200200d833981016040819052620000349162000169565b604080518082018252600b81526a115b98dbd919590813919560aa1b6020808301918252835180850190945260048452631153919560e21b9084015281519192916200008391600091620000c3565b50805162000099906001906020840190620000c3565b5050600a80546001600160a01b0319166001600160a01b03939093169290921790915550620001d7565b828054620000d1906200019b565b90600052602060002090601f016020900481019282620000f5576000855562000140565b82601f106200011057805160ff191683800117855562000140565b8280016001018555821562000140579182015b828111156200014057825182559160200191906001019062000123565b506200014e92915062000152565b5090565b5b808211156200014e576000815560010162000153565b6000602082840312156200017c57600080fd5b81516001600160a01b03811681146200019457600080fd5b9392505050565b600181811c90821680620001b057607f821691505b602082108103620001d157634e487b7160e01b600052602260045260246000fd5b50919050565b611e2680620001e76000396000f3fe608060405234801561001057600080fd5b506004361061016c5760003560e01c8063a22cb465116100cd578063c87b56dd11610081578063ddce557411610066578063ddce5574146102f6578063e793810f14610316578063e985e9c51461032957600080fd5b8063c87b56dd146102d0578063d7f7a49f146102e357600080fd5b8063b88d4fde116100b2578063b88d4fde14610289578063bc235a391461029c578063c215268c146102bd57600080fd5b8063a22cb46514610263578063abc8c7af1461027657600080fd5b806342842e0e1161012457806370a082311161010957806370a08231146102275780638aa0fdad1461024857806395d89b411461025b57600080fd5b806342842e0e146102015780636352211e1461021457600080fd5b8063081812fc11610155578063081812fc146101ae578063095ea7b3146101d957806323b872dd146101ee57600080fd5b806301ffc9a71461017157806306fdde0314610199575b600080fd5b61018461017f3660046118d8565b610365565b60405190151581526020015b60405180910390f35b6101a16103b7565b604051610190919061194d565b6101c16101bc366004611960565b610449565b6040516001600160a01b039091168152602001610190565b6101ec6101e7366004611995565b610470565b005b6101ec6101fc3660046119bf565b61058a565b6101ec61020f3660046119bf565b610601565b6101c1610222366004611960565b61061c565b61023a6102353660046119fb565b610681565b604051908152602001610190565b6101ec610256366004611ab9565b61071b565b6101a1610833565b6101ec610271366004611b1d565b610842565b600a546101c1906001600160a01b031681565b6101ec610297366004611b59565b610851565b6102af6102aa366004611bc1565b6108cf565b604051610190929190611be3565b6101ec6102cb366004611c05565b61099f565b6101a16102de366004611960565b610a5b565b61023a6102f1366004611995565b610b6b565b6103096103043660046119fb565b610b9c565b6040516101909190611c5c565b6102af610324366004611960565b610c08565b610184610337366004611ca0565b6001600160a01b03918216600090815260056020908152604080832093909416825291909152205460ff1690565b60006001600160e01b031982166380ac58cd60e01b148061039657506001600160e01b03198216635b5e139f60e01b145b806103b157506301ffc9a760e01b6001600160e01b03198316145b92915050565b6060600080546103c690611cd3565b80601f01602080910402602001604051908101604052809291908181526020018280546103f290611cd3565b801561043f5780601f106104145761010080835404028352916020019161043f565b820191906000526020600020905b81548152906001019060200180831161042257829003601f168201915b5050505050905090565b600061045482610cf9565b506000908152600460205260409020546001600160a01b031690565b600061047b8261061c565b9050806001600160a01b0316836001600160a01b0316036104ed5760405162461bcd60e51b815260206004820152602160248201527f4552433732313a20617070726f76616c20746f2063757272656e74206f776e656044820152603960f91b60648201526084015b60405180910390fd5b336001600160a01b038216148061050957506105098133610337565b61057b5760405162461bcd60e51b815260206004820152603d60248201527f4552433732313a20617070726f76652063616c6c6572206973206e6f7420746f60448201527f6b656e206f776e6572206f7220617070726f76656420666f7220616c6c00000060648201526084016104e4565b6105858383610d60565b505050565b6105943382610dce565b6105f65760405162461bcd60e51b815260206004820152602d60248201527f4552433732313a2063616c6c6572206973206e6f7420746f6b656e206f776e6560448201526c1c881bdc88185c1c1c9bdd9959609a1b60648201526084016104e4565b610585838383610e4c565b61058583838360405180602001604052806000815250610851565b6000818152600260205260408120546001600160a01b0316806103b15760405162461bcd60e51b815260206004820152601860248201527f4552433732313a20696e76616c696420746f6b656e204944000000000000000060448201526064016104e4565b60006001600160a01b0382166106ff5760405162461bcd60e51b815260206004820152602960248201527f4552433732313a2061646472657373207a65726f206973206e6f74206120766160448201527f6c6964206f776e6572000000000000000000000000000000000000000000000060648201526084016104e4565b506001600160a01b031660009081526003602052604090205490565b610729600780546001019055565b600061073460075490565b90506107403382611039565b61074a8184611053565b600a54610761906001600160a01b03166001610842565b6000818152600860209081526040808320815180830190925233825281830186815281546001808201845592865294849020835160029096020180546001600160a01b0319166001600160a01b039096169590951785555180519294936107ce9392850192910190611829565b505033600090815260096020908152604080832080546001810182559084529190922001839055517fd9dc24857f317ed9abbbb42e920ede0104231eb1d3d70236a74887ffaf15986891506108269083815260200190565b60405180910390a1505050565b6060600180546103c690611cd3565b61084d3383836110fc565b5050565b61085b3383610dce565b6108bd5760405162461bcd60e51b815260206004820152602d60248201527f4552433732313a2063616c6c6572206973206e6f7420746f6b656e206f776e6560448201526c1c881bdc88185c1c1c9bdd9959609a1b60648201526084016104e4565b6108c9848484846111ca565b50505050565b600860205281600052604060002081815481106108eb57600080fd5b6000918252602090912060029091020180546001820180546001600160a01b03909216945091925061091c90611cd3565b80601f016020809104026020016040519081016040528092919081815260200182805461094890611cd3565b80156109955780601f1061096a57610100808354040283529160200191610995565b820191906000526020600020905b81548152906001019060200180831161097857829003601f168201915b5050505050905082565b60006109aa8361061c565b90506109b881858585610851565b600083815260086020908152604080832081518083019092526001600160a01b03888116835282840187815282546001808201855593875295859020845160029097020180546001600160a01b0319169690921695909517815593518051929493610a299392850192910190611829565b505050506001600160a01b03929092166000908152600960209081526040822080546001810182559083529120015550565b6060610a6682610cf9565b60008281526006602052604081208054610a7f90611cd3565b80601f0160208091040260200160405190810160405280929190818152602001828054610aab90611cd3565b8015610af85780601f10610acd57610100808354040283529160200191610af8565b820191906000526020600020905b815481529060010190602001808311610adb57829003601f168201915b505050505090506000610b1660408051602081019091526000815290565b90508051600003610b28575092915050565b815115610b5a578082604051602001610b42929190611d0d565b60405160208183030381529060405292505050919050565b610b6384611248565b949350505050565b60096020528160005260406000208181548110610b8757600080fd5b90600052602060002001600091509150505481565b6001600160a01b038116600090815260096020908152604091829020805483518184028101840190945280845260609392830182828015610bfc57602002820191906000526020600020905b815481526020019060010190808311610be8575b50505050509050919050565b600081815260086020526040812080546060919083908290610c2c90600190611d52565b81548110610c3c57610c3c611d69565b6000918252602090912060029091020180546001820180549293506001600160a01b03909116918190610c6e90611cd3565b80601f0160208091040260200160405190810160405280929190818152602001828054610c9a90611cd3565b8015610ce75780601f10610cbc57610100808354040283529160200191610ce7565b820191906000526020600020905b815481529060010190602001808311610cca57829003601f168201915b50505050509050935093505050915091565b6000818152600260205260409020546001600160a01b0316610d5d5760405162461bcd60e51b815260206004820152601860248201527f4552433732313a20696e76616c696420746f6b656e204944000000000000000060448201526064016104e4565b50565b600081815260046020526040902080546001600160a01b0319166001600160a01b0384169081179091558190610d958261061c565b6001600160a01b03167f8c5be1e5ebec7d5bd14f71427d1e84f3dd0314c0f7b2291e5b200ac8c7c3b92560405160405180910390a45050565b600080610dda8361061c565b9050806001600160a01b0316846001600160a01b03161480610e2157506001600160a01b0380821660009081526005602090815260408083209388168352929052205460ff165b80610b635750836001600160a01b0316610e3a84610449565b6001600160a01b031614949350505050565b826001600160a01b0316610e5f8261061c565b6001600160a01b031614610ec35760405162461bcd60e51b815260206004820152602560248201527f4552433732313a207472616e736665722066726f6d20696e636f72726563742060448201526437bbb732b960d91b60648201526084016104e4565b6001600160a01b038216610f255760405162461bcd60e51b8152602060048201526024808201527f4552433732313a207472616e7366657220746f20746865207a65726f206164646044820152637265737360e01b60648201526084016104e4565b610f3283838360016112bc565b826001600160a01b0316610f458261061c565b6001600160a01b031614610fa95760405162461bcd60e51b815260206004820152602560248201527f4552433732313a207472616e736665722066726f6d20696e636f72726563742060448201526437bbb732b960d91b60648201526084016104e4565b600081815260046020908152604080832080546001600160a01b03199081169091556001600160a01b0387811680865260038552838620805460001901905590871680865283862080546001019055868652600290945282852080549092168417909155905184937fddf252ad1be2c89b69c2b068fc378daa952ba7f163c4a11628f55a4df523b3ef91a4505050565b61084d828260405180602001604052806000815250611344565b6000828152600260205260409020546001600160a01b03166110dd5760405162461bcd60e51b815260206004820152602e60248201527f45524337323155524953746f726167653a2055524920736574206f66206e6f6e60448201527f6578697374656e7420746f6b656e00000000000000000000000000000000000060648201526084016104e4565b6000828152600660209081526040909120825161058592840190611829565b816001600160a01b0316836001600160a01b03160361115d5760405162461bcd60e51b815260206004820152601960248201527f4552433732313a20617070726f766520746f2063616c6c65720000000000000060448201526064016104e4565b6001600160a01b03838116600081815260056020908152604080832094871680845294825291829020805460ff191686151590811790915591519182527f17307eab39ab6107e8899845ad3d59bd9653f200f220920489ca2b5937696c31910160405180910390a3505050565b6111d5848484610e4c565b6111e1848484846113c2565b6108c95760405162461bcd60e51b815260206004820152603260248201527f4552433732313a207472616e7366657220746f206e6f6e20455243373231526560448201527131b2b4bb32b91034b6b83632b6b2b73a32b960711b60648201526084016104e4565b606061125382610cf9565b600061126a60408051602081019091526000815290565b9050600081511161128a57604051806020016040528060008152506112b5565b806112948461150e565b6040516020016112a5929190611d0d565b6040516020818303038152906040525b9392505050565b60018111156108c9576001600160a01b03841615611302576001600160a01b038416600090815260036020526040812080548392906112fc908490611d52565b90915550505b6001600160a01b038316156108c9576001600160a01b03831660009081526003602052604081208054839290611339908490611d7f565b909155505050505050565b61134e83836115ae565b61135b60008484846113c2565b6105855760405162461bcd60e51b815260206004820152603260248201527f4552433732313a207472616e7366657220746f206e6f6e20455243373231526560448201527131b2b4bb32b91034b6b83632b6b2b73a32b960711b60648201526084016104e4565b60006001600160a01b0384163b1561150357604051630a85bd0160e11b81526001600160a01b0385169063150b7a0290611406903390899088908890600401611d97565b6020604051808303816000875af1925050508015611441575060408051601f3d908101601f1916820190925261143e91810190611dd3565b60015b6114e9573d80801561146f576040519150601f19603f3d011682016040523d82523d6000602084013e611474565b606091505b5080516000036114e15760405162461bcd60e51b815260206004820152603260248201527f4552433732313a207472616e7366657220746f206e6f6e20455243373231526560448201527131b2b4bb32b91034b6b83632b6b2b73a32b960711b60648201526084016104e4565b805181602001fd5b6001600160e01b031916630a85bd0160e11b149050610b63565b506001949350505050565b6060600061151b83611747565b600101905060008167ffffffffffffffff81111561153b5761153b611a16565b6040519080825280601f01601f191660200182016040528015611565576020820181803683370190505b5090508181016020015b600019017f3031323334353637383961626364656600000000000000000000000000000000600a86061a8153600a850494508461156f57509392505050565b6001600160a01b0382166116045760405162461bcd60e51b815260206004820181905260248201527f4552433732313a206d696e7420746f20746865207a65726f206164647265737360448201526064016104e4565b6000818152600260205260409020546001600160a01b0316156116695760405162461bcd60e51b815260206004820152601c60248201527f4552433732313a20746f6b656e20616c7265616479206d696e7465640000000060448201526064016104e4565b6116776000838360016112bc565b6000818152600260205260409020546001600160a01b0316156116dc5760405162461bcd60e51b815260206004820152601c60248201527f4552433732313a20746f6b656e20616c7265616479206d696e7465640000000060448201526064016104e4565b6001600160a01b038216600081815260036020908152604080832080546001019055848352600290915280822080546001600160a01b0319168417905551839291907fddf252ad1be2c89b69c2b068fc378daa952ba7f163c4a11628f55a4df523b3ef908290a45050565b6000807a184f03e93ff9f4daa797ed6e38ed64bf6a1f0100000000000000008310611790577a184f03e93ff9f4daa797ed6e38ed64bf6a1f010000000000000000830492506040015b6d04ee2d6d415b85acef810000000083106117bc576d04ee2d6d415b85acef8100000000830492506020015b662386f26fc1000083106117da57662386f26fc10000830492506010015b6305f5e10083106117f2576305f5e100830492506008015b612710831061180657612710830492506004015b60648310611818576064830492506002015b600a83106103b15760010192915050565b82805461183590611cd3565b90600052602060002090601f016020900481019282611857576000855561189d565b82601f1061187057805160ff191683800117855561189d565b8280016001018555821561189d579182015b8281111561189d578251825591602001919060010190611882565b506118a99291506118ad565b5090565b5b808211156118a957600081556001016118ae565b6001600160e01b031981168114610d5d57600080fd5b6000602082840312156118ea57600080fd5b81356112b5816118c2565b60005b838110156119105781810151838201526020016118f8565b838111156108c95750506000910152565b600081518084526119398160208601602086016118f5565b601f01601f19169290920160200192915050565b6020815260006112b56020830184611921565b60006020828403121561197257600080fd5b5035919050565b80356001600160a01b038116811461199057600080fd5b919050565b600080604083850312156119a857600080fd5b6119b183611979565b946020939093013593505050565b6000806000606084860312156119d457600080fd5b6119dd84611979565b92506119eb60208501611979565b9150604084013590509250925092565b600060208284031215611a0d57600080fd5b6112b582611979565b634e487b7160e01b600052604160045260246000fd5b600082601f830112611a3d57600080fd5b813567ffffffffffffffff80821115611a5857611a58611a16565b604051601f8301601f19908116603f01168101908282118183101715611a8057611a80611a16565b81604052838152866020858801011115611a9957600080fd5b836020870160208301376000602085830101528094505050505092915050565b60008060408385031215611acc57600080fd5b823567ffffffffffffffff80821115611ae457600080fd5b611af086838701611a2c565b93506020850135915080821115611b0657600080fd5b50611b1385828601611a2c565b9150509250929050565b60008060408385031215611b3057600080fd5b611b3983611979565b915060208301358015158114611b4e57600080fd5b809150509250929050565b60008060008060808587031215611b6f57600080fd5b611b7885611979565b9350611b8660208601611979565b925060408501359150606085013567ffffffffffffffff811115611ba957600080fd5b611bb587828801611a2c565b91505092959194509250565b60008060408385031215611bd457600080fd5b50508035926020909101359150565b6001600160a01b0383168152604060208201526000610b636040830184611921565b600080600060608486031215611c1a57600080fd5b611c2384611979565b925060208401359150604084013567ffffffffffffffff811115611c4657600080fd5b611c5286828701611a2c565b9150509250925092565b6020808252825182820181905260009190848201906040850190845b81811015611c9457835183529284019291840191600101611c78565b50909695505050505050565b60008060408385031215611cb357600080fd5b611cbc83611979565b9150611cca60208401611979565b90509250929050565b600181811c90821680611ce757607f821691505b602082108103611d0757634e487b7160e01b600052602260045260246000fd5b50919050565b60008351611d1f8184602088016118f5565b835190830190611d338183602088016118f5565b01949350505050565b634e487b7160e01b600052601160045260246000fd5b600082821015611d6457611d64611d3c565b500390565b634e487b7160e01b600052603260045260246000fd5b60008219821115611d9257611d92611d3c565b500190565b60006001600160a01b03808716835280861660208401525083604083015260806060830152611dc96080830184611921565b9695505050505050565b600060208284031215611de557600080fd5b81516112b5816118c256fea2646970667358221220d7ab4d82a0793433d07a698490f7012820484afaa75a414c4990cd7cbb29b60964736f6c634300080d0033",
  "immutableReferences": {},
  "source": "// SPDX-License-Identifier: MIT\npragma solidity ^0.8.13;\n\nimport \"@openzeppelin/contracts/token/ERC721/ERC721.sol\";\nimport \"@openzeppelin/contracts/token/ERC721/extensions/ERC721URIStorage.sol\";\nimport \"@openzeppelin/contracts/utils/Counters.sol\";\nimport \"hardhat/console.sol\"; \n\ncontract ENCNFT is ERC721URIStorage {\n    using Counters for Counters.Counter;\n    Counters.Counter private _tokenIds;\n\n    struct EncryptData {\n        address currentOwner;\n        string encryptKeyForOwner;\n    }\n\n    mapping(uint256 => EncryptData[]) public tokenHistoryEncryption;\n    mapping(address => uint256[]) public tokenOwnersOfToken;\n\n    event NFTMinted(uint256);\n    address public marketplace;\n\n    constructor(address _marketplace) ERC721(\"Encoded NFT\", \"ENFT\") {\n        marketplace = _marketplace;\n    }\n\n    function mint(string memory _tokenURI, string memory decryptKeyForOwner)\n        external\n    {\n        _tokenIds.increment();\n        uint256 newTokenId = _tokenIds.current(); \n        _safeMint(msg.sender, newTokenId); \n        _setTokenURI(newTokenId, _tokenURI); \n        setApprovalForAll(marketplace, true); \n        tokenHistoryEncryption[newTokenId].push(\n            EncryptData(msg.sender, decryptKeyForOwner)\n        );\n        tokenOwnersOfToken[msg.sender].push(newTokenId);\n        emit NFTMinted(newTokenId);\n    }\n\n    function transferTokenWithEncryption( \n        address _to,\n        uint256 _tokenId,\n        bytes memory _data\n    ) external { \n        address currentOwner = ownerOf(_tokenId);\n        // require(false, \"msg.sender\",msg.sender.toString(), \" currentOwner: \", currentOwner.toString());\n        safeTransferFrom(currentOwner, _to, _tokenId, _data);\n        tokenHistoryEncryption[_tokenId].push(EncryptData(_to, string(_data)));\n        tokenOwnersOfToken[_to].push(_tokenId);\n    }\n\n    function getTokenInfoLastOwner(uint256 _tokenId)\n        external\n        view\n        returns (address owner, string memory encData)\n    {\n        EncryptData[] storage allHistoryTokenInfo = tokenHistoryEncryption[\n            _tokenId\n        ];\n        EncryptData storage lastOwnerInfo = allHistoryTokenInfo[\n            allHistoryTokenInfo.length - 1\n        ];\n        return (lastOwnerInfo.currentOwner, lastOwnerInfo.encryptKeyForOwner);\n    }\n\n    function getIdsByAddress(address owner)\n        external\n        view\n        returns (uint256[] memory)\n    {\n        return tokenOwnersOfToken[owner];\n    }\n}\n",
  "sourcePath": "/home/dev/Documents/MY/HACKATHON/LivePeer/newLP/contracts/ethereum/EncNft.sol",
  "compiler": {
    "name": "solc",
    "version": "0.8.13+commit.abaa5c0e.Emscripten.clang"
  },
  "schemaVersion": "3.4.10",
  "updatedAt": "2023-04-04T08:45:06.925Z",
  "networkType": "ethereum",
  "devdoc": {
    "kind": "dev",
    "methods": {
      "approve(address,uint256)": {
        "details": "See {IERC721-approve}."
      },
      "balanceOf(address)": {
        "details": "See {IERC721-balanceOf}."
      },
      "getApproved(uint256)": {
        "details": "See {IERC721-getApproved}."
      },
      "isApprovedForAll(address,address)": {
        "details": "See {IERC721-isApprovedForAll}."
      },
      "name()": {
        "details": "See {IERC721Metadata-name}."
      },
      "ownerOf(uint256)": {
        "details": "See {IERC721-ownerOf}."
      },
      "safeTransferFrom(address,address,uint256)": {
        "details": "See {IERC721-safeTransferFrom}."
      },
      "safeTransferFrom(address,address,uint256,bytes)": {
        "details": "See {IERC721-safeTransferFrom}."
      },
      "setApprovalForAll(address,bool)": {
        "details": "See {IERC721-setApprovalForAll}."
      },
      "supportsInterface(bytes4)": {
        "details": "See {IERC165-supportsInterface}."
      },
      "symbol()": {
        "details": "See {IERC721Metadata-symbol}."
      },
      "tokenURI(uint256)": {
        "details": "See {IERC721Metadata-tokenURI}."
      },
      "transferFrom(address,address,uint256)": {
        "details": "See {IERC721-transferFrom}."
      }
    },
    "version": 1
  },
  "userdoc": {
    "kind": "user",
    "methods": {},
    "version": 1
  }
}