{
  "contractName": "Marketplace",
  "abi": [
    {
      "inputs": [],
      "stateMutability": "nonpayable",
      "type": "constructor"
    },
    {
      "anonymous": false,
      "inputs": [
        {
          "indexed": false,
          "internalType": "uint256",
          "name": "idToken",
          "type": "uint256"
        },
        {
          "indexed": false,
          "internalType": "address",
          "name": "buyerAddress",
          "type": "address"
        },
        {
          "indexed": false,
          "internalType": "uint256",
          "name": "bet",
          "type": "uint256"
        }
      ],
      "name": "BuyerMadeBet",
      "type": "event"
    },
    {
      "anonymous": false,
      "inputs": [
        {
          "indexed": false,
          "internalType": "uint256",
          "name": "idToken",
          "type": "uint256"
        },
        {
          "indexed": false,
          "internalType": "address",
          "name": "buyerAddress",
          "type": "address"
        },
        {
          "indexed": false,
          "internalType": "uint256",
          "name": "bet",
          "type": "uint256"
        }
      ],
      "name": "BuyerWithdrewBet",
      "type": "event"
    },
    {
      "anonymous": false,
      "inputs": [
        {
          "indexed": false,
          "internalType": "address",
          "name": "nftContract",
          "type": "address"
        },
        {
          "indexed": false,
          "internalType": "uint256",
          "name": "tokenId",
          "type": "uint256"
        },
        {
          "indexed": false,
          "internalType": "address",
          "name": "seller",
          "type": "address"
        },
        {
          "indexed": false,
          "internalType": "address",
          "name": "owner",
          "type": "address"
        },
        {
          "indexed": false,
          "internalType": "uint256",
          "name": "price",
          "type": "uint256"
        }
      ],
      "name": "NFTListed",
      "type": "event"
    },
    {
      "anonymous": false,
      "inputs": [
        {
          "indexed": false,
          "internalType": "address",
          "name": "nftContract",
          "type": "address"
        },
        {
          "indexed": false,
          "internalType": "uint256",
          "name": "tokenId",
          "type": "uint256"
        },
        {
          "indexed": false,
          "internalType": "address",
          "name": "seller",
          "type": "address"
        },
        {
          "indexed": false,
          "internalType": "address",
          "name": "owner",
          "type": "address"
        },
        {
          "indexed": false,
          "internalType": "uint256",
          "name": "price",
          "type": "uint256"
        }
      ],
      "name": "NFTSold",
      "type": "event"
    },
    {
      "anonymous": false,
      "inputs": [
        {
          "indexed": false,
          "internalType": "uint256",
          "name": "idToken",
          "type": "uint256"
        },
        {
          "indexed": false,
          "internalType": "address",
          "name": "buyerAddress",
          "type": "address"
        }
      ],
      "name": "NewOwner",
      "type": "event"
    },
    {
      "anonymous": false,
      "inputs": [
        {
          "indexed": false,
          "internalType": "uint256",
          "name": "idToken",
          "type": "uint256"
        },
        {
          "indexed": false,
          "internalType": "address",
          "name": "buyerAddress",
          "type": "address"
        },
        {
          "indexed": false,
          "internalType": "string",
          "name": "message",
          "type": "string"
        }
      ],
      "name": "TokenForSell",
      "type": "event"
    },
    {
      "anonymous": false,
      "inputs": [
        {
          "indexed": false,
          "internalType": "uint256",
          "name": "idToken",
          "type": "uint256"
        },
        {
          "indexed": false,
          "internalType": "address",
          "name": "sellerAddress",
          "type": "address"
        },
        {
          "indexed": false,
          "internalType": "uint256",
          "name": "sum",
          "type": "uint256"
        }
      ],
      "name": "sellerWithdrewSum",
      "type": "event"
    },
    {
      "inputs": [],
      "name": "LISTING_FEE",
      "outputs": [
        {
          "internalType": "uint256",
          "name": "",
          "type": "uint256"
        }
      ],
      "stateMutability": "view",
      "type": "function",
      "constant": true
    },
    {
      "inputs": [
        {
          "internalType": "uint256",
          "name": "",
          "type": "uint256"
        },
        {
          "internalType": "uint256",
          "name": "",
          "type": "uint256"
        }
      ],
      "name": "buyersBoard",
      "outputs": [
        {
          "internalType": "address",
          "name": "buyerAddress",
          "type": "address"
        },
        {
          "internalType": "string",
          "name": "buyerPublicKey",
          "type": "string"
        },
        {
          "internalType": "uint256",
          "name": "buyerBet",
          "type": "uint256"
        },
        {
          "internalType": "string",
          "name": "goalOfPurchase",
          "type": "string"
        }
      ],
      "stateMutability": "view",
      "type": "function",
      "constant": true
    },
    {
      "inputs": [
        {
          "internalType": "uint256",
          "name": "",
          "type": "uint256"
        },
        {
          "internalType": "uint256",
          "name": "",
          "type": "uint256"
        }
      ],
      "name": "sellersBoard",
      "outputs": [
        {
          "internalType": "address",
          "name": "sellerAddress",
          "type": "address"
        },
        {
          "internalType": "uint256",
          "name": "deadline",
          "type": "uint256"
        },
        {
          "internalType": "uint256",
          "name": "sellerSum",
          "type": "uint256"
        }
      ],
      "stateMutability": "view",
      "type": "function",
      "constant": true
    },
    {
      "inputs": [
        {
          "internalType": "address",
          "name": "_nftContract",
          "type": "address"
        }
      ],
      "name": "setNFTContract",
      "outputs": [],
      "stateMutability": "nonpayable",
      "type": "function"
    },
    {
      "inputs": [
        {
          "internalType": "address",
          "name": "_nftContract",
          "type": "address"
        },
        {
          "internalType": "uint256",
          "name": "_tokenId",
          "type": "uint256"
        },
        {
          "internalType": "uint256",
          "name": "_price",
          "type": "uint256"
        }
      ],
      "name": "listNft",
      "outputs": [],
      "stateMutability": "payable",
      "type": "function",
      "payable": true
    },
    {
      "inputs": [
        {
          "internalType": "address",
          "name": "_nftContract",
          "type": "address"
        },
        {
          "internalType": "uint256",
          "name": "_tokenId",
          "type": "uint256"
        }
      ],
      "name": "buyNft",
      "outputs": [],
      "stateMutability": "payable",
      "type": "function",
      "payable": true
    },
    {
      "inputs": [
        {
          "internalType": "address",
          "name": "_nftContract",
          "type": "address"
        },
        {
          "internalType": "uint256",
          "name": "_tokenId",
          "type": "uint256"
        },
        {
          "internalType": "uint256",
          "name": "_price",
          "type": "uint256"
        }
      ],
      "name": "resellNft",
      "outputs": [],
      "stateMutability": "payable",
      "type": "function",
      "payable": true
    },
    {
      "inputs": [],
      "name": "getListingFee",
      "outputs": [
        {
          "internalType": "uint256",
          "name": "",
          "type": "uint256"
        }
      ],
      "stateMutability": "view",
      "type": "function",
      "constant": true
    },
    {
      "inputs": [],
      "name": "getListedNfts",
      "outputs": [
        {
          "components": [
            {
              "internalType": "address",
              "name": "nftContract",
              "type": "address"
            },
            {
              "internalType": "uint256",
              "name": "tokenId",
              "type": "uint256"
            },
            {
              "internalType": "address payable",
              "name": "seller",
              "type": "address"
            },
            {
              "internalType": "address payable",
              "name": "owner",
              "type": "address"
            },
            {
              "internalType": "uint256",
              "name": "price",
              "type": "uint256"
            },
            {
              "internalType": "bool",
              "name": "listed",
              "type": "bool"
            }
          ],
          "internalType": "struct Marketplace.NFT[]",
          "name": "",
          "type": "tuple[]"
        }
      ],
      "stateMutability": "view",
      "type": "function",
      "constant": true
    },
    {
      "inputs": [],
      "name": "getMyNfts",
      "outputs": [
        {
          "components": [
            {
              "internalType": "address",
              "name": "nftContract",
              "type": "address"
            },
            {
              "internalType": "uint256",
              "name": "tokenId",
              "type": "uint256"
            },
            {
              "internalType": "address payable",
              "name": "seller",
              "type": "address"
            },
            {
              "internalType": "address payable",
              "name": "owner",
              "type": "address"
            },
            {
              "internalType": "uint256",
              "name": "price",
              "type": "uint256"
            },
            {
              "internalType": "bool",
              "name": "listed",
              "type": "bool"
            }
          ],
          "internalType": "struct Marketplace.NFT[]",
          "name": "",
          "type": "tuple[]"
        }
      ],
      "stateMutability": "view",
      "type": "function",
      "constant": true
    },
    {
      "inputs": [
        {
          "internalType": "uint256",
          "name": "nftId",
          "type": "uint256"
        }
      ],
      "name": "getMyListedNft",
      "outputs": [
        {
          "components": [
            {
              "internalType": "address",
              "name": "nftContract",
              "type": "address"
            },
            {
              "internalType": "uint256",
              "name": "tokenId",
              "type": "uint256"
            },
            {
              "internalType": "address payable",
              "name": "seller",
              "type": "address"
            },
            {
              "internalType": "address payable",
              "name": "owner",
              "type": "address"
            },
            {
              "internalType": "uint256",
              "name": "price",
              "type": "uint256"
            },
            {
              "internalType": "bool",
              "name": "listed",
              "type": "bool"
            }
          ],
          "internalType": "struct Marketplace.NFT",
          "name": "",
          "type": "tuple"
        }
      ],
      "stateMutability": "view",
      "type": "function",
      "constant": true
    },
    {
      "inputs": [],
      "name": "getMyListedNfts",
      "outputs": [
        {
          "components": [
            {
              "internalType": "address",
              "name": "nftContract",
              "type": "address"
            },
            {
              "internalType": "uint256",
              "name": "tokenId",
              "type": "uint256"
            },
            {
              "internalType": "address payable",
              "name": "seller",
              "type": "address"
            },
            {
              "internalType": "address payable",
              "name": "owner",
              "type": "address"
            },
            {
              "internalType": "uint256",
              "name": "price",
              "type": "uint256"
            },
            {
              "internalType": "bool",
              "name": "listed",
              "type": "bool"
            }
          ],
          "internalType": "struct Marketplace.NFT[]",
          "name": "",
          "type": "tuple[]"
        }
      ],
      "stateMutability": "view",
      "type": "function",
      "constant": true
    },
    {
      "inputs": [
        {
          "internalType": "uint256",
          "name": "idToken",
          "type": "uint256"
        },
        {
          "internalType": "string",
          "name": "buyerPublicKey",
          "type": "string"
        },
        {
          "internalType": "address",
          "name": "buyerAddress",
          "type": "address"
        },
        {
          "internalType": "string",
          "name": "goalPurchase",
          "type": "string"
        }
      ],
      "name": "makeBet",
      "outputs": [],
      "stateMutability": "payable",
      "type": "function",
      "payable": true
    },
    {
      "inputs": [
        {
          "internalType": "uint256",
          "name": "idToken",
          "type": "uint256"
        }
      ],
      "name": "getSellerById",
      "outputs": [
        {
          "components": [
            {
              "internalType": "address",
              "name": "sellerAddress",
              "type": "address"
            },
            {
              "internalType": "uint256",
              "name": "deadline",
              "type": "uint256"
            },
            {
              "internalType": "uint256",
              "name": "sellerSum",
              "type": "uint256"
            }
          ],
          "internalType": "struct Marketplace.SellerData[]",
          "name": "",
          "type": "tuple[]"
        }
      ],
      "stateMutability": "view",
      "type": "function",
      "constant": true
    },
    {
      "inputs": [
        {
          "internalType": "uint256",
          "name": "idToken",
          "type": "uint256"
        }
      ],
      "name": "getCountSellers",
      "outputs": [
        {
          "internalType": "uint256",
          "name": "",
          "type": "uint256"
        }
      ],
      "stateMutability": "view",
      "type": "function",
      "constant": true
    },
    {
      "inputs": [
        {
          "internalType": "uint256",
          "name": "idToken",
          "type": "uint256"
        }
      ],
      "name": "getCountBuyers",
      "outputs": [
        {
          "internalType": "uint256",
          "name": "",
          "type": "uint256"
        }
      ],
      "stateMutability": "view",
      "type": "function",
      "constant": true
    },
    {
      "inputs": [
        {
          "internalType": "uint256",
          "name": "idToken",
          "type": "uint256"
        }
      ],
      "name": "getBuyersById",
      "outputs": [
        {
          "components": [
            {
              "internalType": "address",
              "name": "buyerAddress",
              "type": "address"
            },
            {
              "internalType": "string",
              "name": "buyerPublicKey",
              "type": "string"
            },
            {
              "internalType": "uint256",
              "name": "buyerBet",
              "type": "uint256"
            },
            {
              "internalType": "string",
              "name": "goalOfPurchase",
              "type": "string"
            }
          ],
          "internalType": "struct Marketplace.BuyerData[]",
          "name": "",
          "type": "tuple[]"
        }
      ],
      "stateMutability": "view",
      "type": "function",
      "constant": true
    },
    {
      "inputs": [
        {
          "internalType": "uint256",
          "name": "idToken",
          "type": "uint256"
        }
      ],
      "name": "buyerWithdrawBet",
      "outputs": [],
      "stateMutability": "nonpayable",
      "type": "function"
    },
    {
      "inputs": [
        {
          "internalType": "uint256",
          "name": "idToken",
          "type": "uint256"
        }
      ],
      "name": "sellerWithdrawSum",
      "outputs": [],
      "stateMutability": "nonpayable",
      "type": "function"
    },
    {
      "inputs": [
        {
          "internalType": "uint256",
          "name": "idToken",
          "type": "uint256"
        },
        {
          "internalType": "address",
          "name": "buyerAddress",
          "type": "address"
        },
        {
          "internalType": "bytes",
          "name": "data",
          "type": "bytes"
        }
      ],
      "name": "acceptRateAndTransferToken",
      "outputs": [],
      "stateMutability": "nonpayable",
      "type": "function"
    },
    {
      "inputs": [
        {
          "internalType": "uint256",
          "name": "idToken",
          "type": "uint256"
        },
        {
          "internalType": "address",
          "name": "buyerAddress",
          "type": "address"
        }
      ],
      "name": "getBuyerIndex",
      "outputs": [
        {
          "internalType": "uint256",
          "name": "buyerIndex",
          "type": "uint256"
        }
      ],
      "stateMutability": "view",
      "type": "function",
      "constant": true
    },
    {
      "inputs": [
        {
          "internalType": "uint256",
          "name": "idToken",
          "type": "uint256"
        },
        {
          "internalType": "address",
          "name": "sellerAddress",
          "type": "address"
        }
      ],
      "name": "getSellerIndex",
      "outputs": [
        {
          "internalType": "uint256",
          "name": "sellerIndex",
          "type": "uint256"
        }
      ],
      "stateMutability": "view",
      "type": "function",
      "constant": true
    },
    {
      "inputs": [
        {
          "internalType": "uint256",
          "name": "idToken",
          "type": "uint256"
        },
        {
          "internalType": "string",
          "name": "message",
          "type": "string"
        },
        {
          "internalType": "uint256",
          "name": "_price",
          "type": "uint256"
        },
        {
          "internalType": "address",
          "name": "_nftContract",
          "type": "address"
        }
      ],
      "name": "moveTokenForSell",
      "outputs": [],
      "stateMutability": "payable",
      "type": "function",
      "payable": true
    },
    {
      "inputs": [
        {
          "internalType": "uint256",
          "name": "idToken",
          "type": "uint256"
        },
        {
          "internalType": "string",
          "name": "message",
          "type": "string"
        }
      ],
      "name": "removeTokenFromMarketPlace",
      "outputs": [],
      "stateMutability": "nonpayable",
      "type": "function"
    },
    {
      "inputs": [
        {
          "internalType": "uint256",
          "name": "_tokenId",
          "type": "uint256"
        },
        {
          "internalType": "address",
          "name": "owner",
          "type": "address"
        }
      ],
      "name": "getOwnerInfo",
      "outputs": [
        {
          "internalType": "string",
          "name": "balance",
          "type": "string"
        }
      ],
      "stateMutability": "view",
      "type": "function",
      "constant": true
    }
  ],
  "bytecode": "0x6080604052655af3107a400060035534801561001a57600080fd5b506001600055600580546001600160a01b03191633179055612e17806100416000396000f3fe6080604052600436106101965760003560e01c80635cdfd1e4116100e1578063b0edf9a41161008a578063b8fe6abe11610064578063b8fe6abe14610488578063c922b17c1461049d578063cf107b03146104b0578063f765a8801461057657600080fd5b8063b0edf9a41461041b578063b5540aa51461043b578063b6a12a511461046857600080fd5b80638d6cb3fb116100bb5780638d6cb3fb1461039c5780639d0ec380146103b1578063a7ccabdf146103de57600080fd5b80635cdfd1e41461030a578063664179811461032a5780637b52ade61461036f57600080fd5b80631f4cc4db1161014357806334f5b6241161011d57806334f5b624146102c4578063443e2037146102d75780634ddf4f8f146102f757600080fd5b80631f4cc4db146102865780632b86ae381461029b57806331aa011d146102b157600080fd5b806314bb9abe1161017457806314bb9abe1461020b578063195b09de1461022b57806319c4ab291461026657600080fd5b8063030b4f4e1461019b57806303965f62146101b0578063047b07bf146101e9575b600080fd5b6101ae6101a9366004612707565b6105a3565b005b3480156101bc57600080fd5b506101d06101cb36600461276a565b610941565b6040516101e094939291906127e4565b60405180910390f35b3480156101f557600080fd5b506101fe610aa5565b6040516101e09190612829565b34801561021757600080fd5b506101ae6102263660046128bd565b610c93565b34801561023757600080fd5b506102586102463660046128bd565b60009081526008602052604090205490565b6040519081526020016101e0565b34801561027257600080fd5b506101ae6102813660046128bd565b610e36565b34801561029257600080fd5b506101fe610fd9565b3480156102a757600080fd5b5061025860035481565b6101ae6102bf3660046128d6565b61121b565b6101ae6102d2366004612958565b61145d565b3480156102e357600080fd5b506101ae6102f236600461298d565b611627565b6101ae6103053660046129d4565b611666565b34801561031657600080fd5b506101ae610325366004612a00565b611884565b34801561033657600080fd5b5061034a61034536600461276a565b611bf9565b604080516001600160a01b0390941684526020840192909252908201526060016101e0565b34801561037b57600080fd5b5061038f61038a3660046128bd565b611c45565b6040516101e09190612a6d565b3480156103a857600080fd5b506101fe611df4565b3480156103bd57600080fd5b506103d16103cc3660046128bd565b611f89565b6040516101e09190612b12565b3480156103ea57600080fd5b506101ae6103f9366004612b74565b600480546001600160a01b0319166001600160a01b0392909216919091179055565b34801561042757600080fd5b50610258610436366004612b91565b61200b565b34801561044757600080fd5b506102586104563660046128bd565b60009081526007602052604090205490565b34801561047457600080fd5b50610258610483366004612b91565b61208e565b34801561049457600080fd5b50600354610258565b6101ae6104ab366004612958565b612108565b3480156104bc57600080fd5b506105696104cb3660046128bd565b6040805160c081018252600080825260208201819052918101829052606081018290526080810182905260a081019190915250600090815260066020908152604091829020825160c08101845281546001600160a01b039081168252600183015493820193909352600282015483169381019390935260038101549091166060830152600481015460808301526005015460ff16151560a082015290565b6040516101e09190612bc1565b34801561058257600080fd5b50610596610591366004612b91565b6122e1565b6040516101e09190612c15565b6105ab6123a3565b60035434146106015760405162461bcd60e51b815260206004820181905260248201527f4e6f7420656e6f75676820657468657220666f72206c697374696e672066656560448201526064015b60405180910390fd5b600480546040516331a9108f60e11b81529182018690526000916001600160a01b0390911690636352211e90602401602060405180830381865afa15801561064d573d6000803e3d6000fd5b505050506040513d601f19601f820116820180604052508101906106719190612c28565b90506001600160a01b03811633146106d55760405162461bcd60e51b815260206004820152602160248201527f546865206164647265737320686173206e6f74206f776e2074686520746f6b656044820152603760f91b60648201526084016105f8565b6106e3600280546001019055565b6040518060c00160405280836001600160a01b03168152602001868152602001336001600160a01b03168152602001336001600160a01b03168152602001848152602001600115158152506006600087815260200190815260200160002060008201518160000160006101000a8154816001600160a01b0302191690836001600160a01b031602179055506020820151816001015560408201518160020160006101000a8154816001600160a01b0302191690836001600160a01b0316021790555060608201518160030160006101000a8154816001600160a01b0302191690836001600160a01b031602179055506080820151816004015560a08201518160050160006101000a81548160ff0219169083151502179055509050507fa0c6c0d02d86fdacecbaa5fdf5894bab204e31a778250474108540733a9b8d1982863333876040516108649594939291906001600160a01b039586168152602081019490945291841660408401529092166060820152608081019190915260a00190565b60405180910390a16000858152600860209081526040918290208251606081019093523383529190810161089b42620f42406123fc565b81526000602091820181905283546001808201865594825290829020835160039092020180546001600160a01b0319166001600160a01b039092169190911781559082015192810192909255604090810151600290920191909155517fa621f3c578ccec4c2281ee2f069b7f0f599322063cd5237b5583fd654051e0ae9061092890879033908890612c45565b60405180910390a15061093b6001600055565b50505050565b6007602052816000526040600020818154811061095d57600080fd5b6000918252602090912060049091020180546001820180546001600160a01b03909216945091925061098e90612c76565b80601f01602080910402602001604051908101604052809291908181526020018280546109ba90612c76565b8015610a075780601f106109dc57610100808354040283529160200191610a07565b820191906000526020600020905b8154815290600101906020018083116109ea57829003601f168201915b505050505090806002015490806003018054610a2290612c76565b80601f0160208091040260200160405190810160405280929190818152602001828054610a4e90612c76565b8015610a9b5780601f10610a7057610100808354040283529160200191610a9b565b820191906000526020600020905b815481529060010190602001808311610a7e57829003601f168201915b5050505050905084565b60606000610ab260025490565b90506000805b82811015610b12573360066000610ad0846001612cc6565b81526020810191909152604001600020600301546001600160a01b031603610b005781610afc81612cde565b9250505b80610b0a81612cde565b915050610ab8565b5060008167ffffffffffffffff811115610b2e57610b2e612643565b604051908082528060200260200182016040528015610b8e57816020015b6040805160c08101825260008082526020808301829052928201819052606082018190526080820181905260a08201528252600019909201910181610b4c5790505b5090506000805b84811015610c89573360066000610bad846001612cc6565b81526020810191909152604001600020600301546001600160a01b031603610c775760066000610bde836001612cc6565b81526020808201929092526040908101600020815160c08101835281546001600160a01b0390811682526001830154948201949094526002820154841692810192909252600381015490921660608201526004820154608082015260059091015460ff16151560a08201528351849084908110610c5d57610c5d612cf7565b60200260200101819052508180610c7390612cde565b9250505b80610c8181612cde565b915050610b95565b5090949350505050565b6000610c9f823361208e565b6000838152600760205260408120805492935090918291339185908110610cc857610cc8612cf7565b90600052602060002090600402016002015460405160006040518083038185875af1925050503d8060008114610d1a576040519150601f19603f3d011682016040523d82523d6000602084013e610d1f565b606091505b509150915081610d715760405162461bcd60e51b815260206004820152601860248201527f4661696c656420746f207769746864726177204574686572000000000000000060448201526064016105f8565b7f98ccdb6ca1b391b9d00c4b39b242ef445e5d59bd02b7ae2687c2ed3e6cc994f08433600760008881526020019081526020016000208681548110610db857610db8612cf7565b906000526020600020906004020160020154604051610df3939291909283526001600160a01b03919091166020830152604082015260600190565b60405180910390a16000848152600760205260408120805485908110610e1b57610e1b612cf7565b90600052602060002090600402016002018190555050505050565b6000610e42823361200b565b6000838152600860205260408120805492935090918291339185908110610e6b57610e6b612cf7565b90600052602060002090600302016002015460405160006040518083038185875af1925050503d8060008114610ebd576040519150601f19603f3d011682016040523d82523d6000602084013e610ec2565b606091505b509150915081610f145760405162461bcd60e51b815260206004820152601860248201527f4661696c656420746f207769746864726177204574686572000000000000000060448201526064016105f8565b7fc18f79f69c42ef161d163d5c4c1f3264b416f96d4e2a6ce5b3fbbaa7d826d94a8433600860008881526020019081526020016000208681548110610f5b57610f5b612cf7565b906000526020600020906003020160020154604051610f96939291909283526001600160a01b03919091166020830152604082015260600190565b60405180910390a16000848152600860205260408120805485908110610fbe57610fbe612cf7565b90600052602060002090600302016002018190555050505050565b60606000610fe660025490565b90506000805b82811015611075573360066000611004846001612cc6565b81526020810191909152604001600020600201546001600160a01b0316148015611050575060066000611038836001612cc6565b815260208101919091526040016000206005015460ff165b15611063578161105f81612cde565b9250505b8061106d81612cde565b915050610fec565b5060008167ffffffffffffffff81111561109157611091612643565b6040519080825280602002602001820160405280156110f157816020015b6040805160c08101825260008082526020808301829052928201819052606082018190526080820181905260a082015282526000199092019101816110af5790505b5090506000805b84811015610c89573360066000611110846001612cc6565b81526020810191909152604001600020600201546001600160a01b031614801561115c575060066000611144836001612cc6565b815260208101919091526040016000206005015460ff165b156112095760066000611170836001612cc6565b81526020808201929092526040908101600020815160c08101835281546001600160a01b0390811682526001830154948201949094526002820154841692810192909252600381015490921660608201526004820154608082015260059091015460ff16151560a082015283518490849081106111ef576111ef612cf7565b6020026020010181905250818061120590612cde565b9250505b8061121381612cde565b9150506110f8565b3460000361126b5760405162461bcd60e51b815260206004820152601360248201527f52617465206d757374206265206d6f726520300000000000000000000000000060448201526064016105f8565b6000611277858461208e565b600086815260076020526040902054909150158015906112da5750600085815260076020526040902080546001600160a01b0385169190839081106112be576112be612cf7565b60009182526020909120600490910201546001600160a01b0316145b1561136557600085815260076020526040812080546113259134918590811061130557611305612cf7565b9060005260206000209060040201600201546123fc90919063ffffffff16565b6000878152600760205260409020805491925082918490811061134a5761134a612cf7565b9060005260206000209060040201600201819055505061140f565b600085815260076020908152604080832081516080810183526001600160a01b0388811682528185018a815234948301949094526060820188905282546001808201855593875295859020825160049097020180546001600160a01b03191696909116959095178555915180519294936113e593928501929101906125aa565b50604082015160028201556060820151805161140b9160038401916020909101906125aa565b5050505b604080518681526001600160a01b0385166020820152348183015290517fdf69adb2dfb31a73e8980f500a6d69055d1debc3dd097c87db248299e486219f9181900360600190a15050505050565b6114656123a3565b600081116114b55760405162461bcd60e51b815260206004820152601c60248201527f5072696365206d757374206265206174206c656173742031207765690000000060448201526064016105f8565b60035434146115065760405162461bcd60e51b815260206004820181905260248201527f4e6f7420656e6f75676820657468657220666f72206c697374696e672066656560448201526064016105f8565b6040516323b872dd60e01b8152336004820152306024820152604481018390526001600160a01b038416906323b872dd90606401600060405180830381600087803b15801561155457600080fd5b505af1158015611568573d6000803e3d6000fd5b50505060008381526006602052604090206002810180546001600160a01b031990811633179091556003820180549091163017905560058101805460ff19166001908117909155600482018490559091506115c29061240f565b604080516001600160a01b03861681526020810185905233818301523060608201526080810184905290517fa0c6c0d02d86fdacecbaa5fdf5894bab204e31a778250474108540733a9b8d199181900360a00190a1506116226001600055565b505050565b7fa621f3c578ccec4c2281ee2f069b7f0f599322063cd5237b5583fd654051e0ae82338360405161165a93929190612c45565b60405180910390a15050565b61166e6123a3565b600081815260066020526040902060048101543410156116f65760405162461bcd60e51b815260206004820152602660248201527f4e6f7420656e6f75676820657468657220746f20636f7665722061736b696e6760448201527f207072696365000000000000000000000000000000000000000000000000000060648201526084016105f8565b600281015460405133916001600160a01b0316903480156108fc02916000818181858888f19350505050158015611731573d6000803e3d6000fd5b5060018201546040516323b872dd60e01b81523060048201526001600160a01b0383811660248301526044820192909252908516906323b872dd90606401600060405180830381600087803b15801561178957600080fd5b505af115801561179d573d6000803e3d6000fd5b50506005546003546040516001600160a01b03909216935080156108fc029250906000818181858888f193505050501580156117dd573d6000803e3d6000fd5b506003820180546001600160a01b0319166001600160a01b03831617905560058201805460ff19169055600180548101905560018201546002830154604080516001600160a01b03808916825260208201949094529183169082015290821660608201523460808201527f16f1dbd97e6bf646d429ed186cce832f1f7fd9907814293b83181e9970ab7bd29060a00160405180910390a150506118806001600055565b5050565b6000611890848461208e565b9050600061189e853361200b565b6004805460405163308549a360e21b81529293506001600160a01b03169163c215268c916118d29188918a91899101612d0d565b600060405180830381600087803b1580156118ec57600080fd5b505af1158015611900573d6000803e3d6000fd5b50505060008681526006602090815260408083206002810180546001600160a01b038b166001600160a01b03199182168117909255600383018054909116909117905560058101805460ff1916600117905560079092529091208054919250908490811061197057611970612cf7565b60009182526020808320600492830201600201548483015590548883526007909152604090912080547fa0c6c0d02d86fdacecbaa5fdf5894bab204e31a778250474108540733a9b8d19926001600160a01b031691899189918291899081106119db576119db612cf7565b906000526020600020906004020160020154604051611a2c9594939291906001600160a01b039586168152602081019490945291841660408401529092166060820152608081019190915260a00190565b60405180910390a160008681526007602052604090208054611aaf919085908110611a5957611a59612cf7565b906000526020600020906004020160020154600860008981526020019081526020016000208481548110611a8f57611a8f612cf7565b9060005260206000209060030201600201546123fc90919063ffffffff16565b6000878152600860205260409020805484908110611acf57611acf612cf7565b9060005260206000209060030201600201819055506000600760008881526020019081526020016000208481548110611b0a57611b0a612cf7565b906000526020600020906004020160020181905550600860008781526020019081526020016000206040518060600160405280876001600160a01b03168152602001611b62620f4240426123fc90919063ffffffff16565b81526000602091820181905283546001808201865594825290829020835160039092020180546001600160a01b0319166001600160a01b0392831617815583830151948101949094556040928301516002909401939093558151898152928816908301527f4c5d8ccfd4f32dad0c449108334c94e0bada87b1453ad71e79e233545f4c48a6910160405180910390a1505050505050565b60086020528160005260406000208181548110611c1557600080fd5b60009182526020909120600390910201805460018201546002909201546001600160a01b03909116935090915083565b60008181526007602090815260408083208054825181850281018501909352808352606094919384929084015b82821015611de857600084815260209081902060408051608081019091526004850290910180546001600160a01b031682526001810180549293919291840191611cbb90612c76565b80601f0160208091040260200160405190810160405280929190818152602001828054611ce790612c76565b8015611d345780601f10611d0957610100808354040283529160200191611d34565b820191906000526020600020905b815481529060010190602001808311611d1757829003601f168201915b5050505050815260200160028201548152602001600382018054611d5790612c76565b80601f0160208091040260200160405190810160405280929190818152602001828054611d8390612c76565b8015611dd05780601f10611da557610100808354040283529160200191611dd0565b820191906000526020600020905b815481529060010190602001808311611db357829003601f168201915b50505050508152505081526020019060010190611c72565b50505050915050919050565b60606000611e0160025490565b90506000611e0e60015490565b611e189083612d35565b905060008167ffffffffffffffff811115611e3557611e35612643565b604051908082528060200260200182016040528015611e9557816020015b6040805160c08101825260008082526020808301829052928201819052606082018190526080820181905260a08201528252600019909201910181611e535790505b5090506000805b84811015610c895760066000611eb3836001612cc6565b815260208101919091526040016000206005015460ff1615611f775760066000611ede836001612cc6565b81526020808201929092526040908101600020815160c08101835281546001600160a01b0390811682526001830154948201949094526002820154841692810192909252600381015490921660608201526004820154608082015260059091015460ff16151560a08201528351849084908110611f5d57611f5d612cf7565b60200260200101819052508180611f7390612cde565b9250505b80611f8181612cde565b915050611e9c565b60008181526008602090815260408083208054825181850281018501909352808352606094919384929084015b82821015611de8576000848152602090819020604080516060810182526003860290920180546001600160a01b0316835260018082015484860152600290910154918301919091529083529092019101611fb6565b600082815260086020526040812054815b8181101561208557600085815260086020526040902080546001600160a01b03861691908390811061205057612050612cf7565b60009182526020909120600390910201546001600160a01b031603612073578092505b8061207d81612cde565b91505061201c565b50505b92915050565b600082815260076020526040812054815b8181101561208557600085815260076020526040902080546001600160a01b0386169190839081106120d3576120d3612cf7565b60009182526020909120600490910201546001600160a01b0316036120f6578092505b8061210081612cde565b91505061209f565b6121106123a3565b600081116121605760405162461bcd60e51b815260206004820152601c60248201527f5072696365206d757374206265206174206c656173742031207765690000000060448201526064016105f8565b60035434146121b15760405162461bcd60e51b815260206004820181905260248201527f4e6f7420656e6f75676820657468657220666f72206c697374696e672066656560448201526064016105f8565b6121bf600280546001019055565b6040805160c0810182526001600160a01b0380861682526020808301868152338486018181526060860182815260808701898152600160a0890181815260008d81526006909852968a9020985189549089166001600160a01b0319918216178a5595519089015591516002880180549188169186169190911790555160038701805491909616931692909217909355516004840155516005909201805492151560ff199093169290921790915590517fa0c6c0d02d86fdacecbaa5fdf5894bab204e31a778250474108540733a9b8d19916122cf9186918691309087906001600160a01b039586168152602081019490945291841660408401529092166060820152608081019190915260a00190565b60405180910390a16116226001600055565b600082815260086020526040812080546060925b8181101561239a57846001600160a01b031683828154811061231957612319612cf7565b60009182526020909120600390910201546001600160a01b031603612388578361236584838154811061234e5761234e612cf7565b906000526020600020906003020160020154612466565b604051602001612376929190612d4c565b60405160208183030381529060405293505b8061239281612cde565b9150506122f5565b50505092915050565b6002600054036123f55760405162461bcd60e51b815260206004820152601f60248201527f5265656e7472616e637947756172643a207265656e7472616e742063616c6c0060448201526064016105f8565b6002600055565b60006124088284612cc6565b9392505050565b80548061245e5760405162461bcd60e51b815260206004820152601b60248201527f436f756e7465723a2064656372656d656e74206f766572666c6f77000000000060448201526064016105f8565b600019019055565b60608160000361248d5750506040805180820190915260018152600360fc1b602082015290565b8160005b81156124b757806124a181612cde565b91506124b09050600a83612d7b565b9150612491565b60008167ffffffffffffffff8111156124d2576124d2612643565b6040519080825280601f01601f1916602001820160405280156124fc576020820181803683370190505b509050815b85156125a157612512600182612d35565b90506000612521600a88612d7b565b61252c90600a612d9d565b6125369088612d35565b612541906030612dbc565b905060008160f81b90508084848151811061255e5761255e612cf7565b60200101907effffffffffffffffffffffffffffffffffffffffffffffffffffffffffffff1916908160001a905350612598600a89612d7b565b97505050612501565b50949350505050565b8280546125b690612c76565b90600052602060002090601f0160209004810192826125d8576000855561261e565b82601f106125f157805160ff191683800117855561261e565b8280016001018555821561261e579182015b8281111561261e578251825591602001919060010190612603565b5061262a92915061262e565b5090565b5b8082111561262a576000815560010161262f565b634e487b7160e01b600052604160045260246000fd5b600067ffffffffffffffff8084111561267457612674612643565b604051601f8501601f19908116603f0116810190828211818310171561269c5761269c612643565b816040528093508581528686860111156126b557600080fd5b858560208301376000602087830101525050509392505050565b600082601f8301126126e057600080fd5b61240883833560208501612659565b6001600160a01b038116811461270457600080fd5b50565b6000806000806080858703121561271d57600080fd5b84359350602085013567ffffffffffffffff81111561273b57600080fd5b612747878288016126cf565b93505060408501359150606085013561275f816126ef565b939692955090935050565b6000806040838503121561277d57600080fd5b50508035926020909101359150565b60005b838110156127a757818101518382015260200161278f565b8381111561093b5750506000910152565b600081518084526127d081602086016020860161278c565b601f01601f19169290920160200192915050565b6001600160a01b038516815260806020820152600061280660808301866127b8565b846040840152828103606084015261281e81856127b8565b979650505050505050565b6020808252825182820181905260009190848201906040850190845b818110156128b15761289e8385516001600160a01b0380825116835260208201516020840152806040830151166040840152806060830151166060840152506080810151608083015260a0810151151560a08301525050565b9284019260c09290920191600101612845565b50909695505050505050565b6000602082840312156128cf57600080fd5b5035919050565b600080600080608085870312156128ec57600080fd5b84359350602085013567ffffffffffffffff8082111561290b57600080fd5b612917888389016126cf565b945060408701359150612929826126ef565b9092506060860135908082111561293f57600080fd5b5061294c878288016126cf565b91505092959194509250565b60008060006060848603121561296d57600080fd5b8335612978816126ef565b95602085013595506040909401359392505050565b600080604083850312156129a057600080fd5b82359150602083013567ffffffffffffffff8111156129be57600080fd5b6129ca858286016126cf565b9150509250929050565b600080604083850312156129e757600080fd5b82356129f2816126ef565b946020939093013593505050565b600080600060608486031215612a1557600080fd5b833592506020840135612a27816126ef565b9150604084013567ffffffffffffffff811115612a4357600080fd5b8401601f81018613612a5457600080fd5b612a6386823560208401612659565b9150509250925092565b60006020808301818452808551808352604092508286019150828160051b87010184880160005b83811015612b0457603f19898403018552815160806001600160a01b03825116855288820151818a870152612acb828701826127b8565b915050878201518886015260608083015192508582038187015250612af081836127b8565b968901969450505090860190600101612a94565b509098975050505050505050565b602080825282518282018190526000919060409081850190868401855b82811015612b6757815180516001600160a01b0316855286810151878601528501518585015260609093019290850190600101612b2f565b5091979650505050505050565b600060208284031215612b8657600080fd5b8135612408816126ef565b60008060408385031215612ba457600080fd5b823591506020830135612bb6816126ef565b809150509250929050565b60c0810161208882846001600160a01b0380825116835260208201516020840152806040830151166040840152806060830151166060840152506080810151608083015260a0810151151560a08301525050565b60208152600061240860208301846127b8565b600060208284031215612c3a57600080fd5b8151612408816126ef565b8381526001600160a01b0383166020820152606060408201526000612c6d60608301846127b8565b95945050505050565b600181811c90821680612c8a57607f821691505b602082108103612caa57634e487b7160e01b600052602260045260246000fd5b50919050565b634e487b7160e01b600052601160045260246000fd5b60008219821115612cd957612cd9612cb0565b500190565b600060018201612cf057612cf0612cb0565b5060010190565b634e487b7160e01b600052603260045260246000fd5b6001600160a01b0384168152826020820152606060408201526000612c6d60608301846127b8565b600082821015612d4757612d47612cb0565b500390565b60008351612d5e81846020880161278c565b835190830190612d7281836020880161278c565b01949350505050565b600082612d9857634e487b7160e01b600052601260045260246000fd5b500490565b6000816000190483118215151615612db757612db7612cb0565b500290565b600060ff821660ff84168060ff03821115612dd957612dd9612cb0565b01939250505056fea26469706673582212201df65255b48378d7e4a2943629f0e6dc77f7467c426ad7da414a7ba43e1c14b764736f6c634300080d0033",
  "immutableReferences": {},
  "source": "// SPDX-License-Identifier: MIT\npragma solidity ^0.8.13;\n\nimport \"@openzeppelin/contracts/utils/Counters.sol\";\nimport \"@openzeppelin/contracts/token/ERC721/ERC721.sol\";\nimport \"@openzeppelin/contracts/security/ReentrancyGuard.sol\";\nimport \"@openzeppelin/contracts/utils/math/SafeMath.sol\";\nimport \"@openzeppelin/contracts/utils/Strings.sol\";\nimport \"hardhat/console.sol\";\nimport \"./EncNft.sol\";\n\ncontract Marketplace is ReentrancyGuard {\n    using SafeMath for uint256;\n    using Counters for Counters.Counter;\n    Counters.Counter private _nftsSold;\n    Counters.Counter private _nftCount;\n    uint256 public LISTING_FEE = 0.0001 ether;\n    ENCNFT encNftContract;\n    address payable private _marketOwner;\n    mapping(uint256 => NFT) private _idToNFT;\n    struct NFT {\n        address nftContract;\n        uint256 tokenId;\n        address payable seller;\n        address payable owner;\n        uint256 price;\n        bool listed;\n    }\n    event NFTListed(\n        address nftContract,\n        uint256 tokenId,\n        address seller,\n        address owner,\n        uint256 price\n    );\n    event NFTSold(\n        address nftContract,\n        uint256 tokenId,\n        address seller,\n        address owner,\n        uint256 price\n    );\n\n    struct BuyerData {\n        address buyerAddress;\n        string buyerPublicKey;\n        uint256 buyerBet;\n        string goalOfPurchase;\n    }\n\n    struct SellerData {\n        address sellerAddress;\n        uint256 deadline;\n        uint256 sellerSum;\n    }\n    mapping(uint256 => BuyerData[]) public buyersBoard; // to do private\n    mapping(uint256 => SellerData[]) public sellersBoard; // to do private\n\n    event NewOwner(uint256 idToken, address buyerAddress);\n    event TokenForSell(uint256 idToken, address buyerAddress, string message);\n    event BuyerMadeBet(uint256 idToken, address buyerAddress, uint256 bet);\n    event BuyerWithdrewBet(uint256 idToken, address buyerAddress, uint256 bet);\n    event sellerWithdrewSum(\n        uint256 idToken,\n        address sellerAddress,\n        uint256 sum\n    );\n\n    constructor() {\n        _marketOwner = payable(msg.sender);\n    }\n\n    function setNFTContract(address _nftContract) public {\n        encNftContract = ENCNFT(_nftContract);\n    }\n\n    // List the NFT on the marketplace\n    function listNft(\n        address _nftContract,\n        uint256 _tokenId,\n        uint256 _price\n    ) public payable nonReentrant {\n        require(_price > 0, \"Price must be at least 1 wei\");\n        require(msg.value == LISTING_FEE, \"Not enough ether for listing fee\");\n\n        // IERC721(_nftContract).transferFrom(msg.sender, address(this), _tokenId);\n\n        _nftCount.increment();\n\n        _idToNFT[_tokenId] = NFT(\n            _nftContract,\n            _tokenId,\n            payable(msg.sender),\n            payable(msg.sender), // payable(address(this)),\n            _price,\n            true\n        );\n\n        emit NFTListed(\n            _nftContract,\n            _tokenId,\n            msg.sender,\n            address(this),\n            _price\n        );\n    }\n\n    // Buy an NFT\n    function buyNft(address _nftContract, uint256 _tokenId)\n        public\n        payable\n        nonReentrant\n    {\n        NFT storage nft = _idToNFT[_tokenId];\n        require(\n            msg.value >= nft.price,\n            \"Not enough ether to cover asking price\"\n        );\n\n        address payable buyer = payable(msg.sender);\n        payable(nft.seller).transfer(msg.value);\n        IERC721(_nftContract).transferFrom(address(this), buyer, nft.tokenId);\n        _marketOwner.transfer(LISTING_FEE);\n        nft.owner = buyer;\n        nft.listed = false;\n\n        _nftsSold.increment();\n        emit NFTSold(_nftContract, nft.tokenId, nft.seller, buyer, msg.value);\n    }\n\n    // Resell an NFT purchased from the marketplace\n    function resellNft(\n        address _nftContract,\n        uint256 _tokenId,\n        uint256 _price\n    ) public payable nonReentrant {\n        require(_price > 0, \"Price must be at least 1 wei\");\n        require(msg.value == LISTING_FEE, \"Not enough ether for listing fee\");\n\n        IERC721(_nftContract).transferFrom(msg.sender, address(this), _tokenId);\n\n        NFT storage nft = _idToNFT[_tokenId];\n        nft.seller = payable(msg.sender);\n        nft.owner = payable(address(this));\n        nft.listed = true;\n        nft.price = _price;\n\n        _nftsSold.decrement();\n        emit NFTListed(\n            _nftContract,\n            _tokenId,\n            msg.sender,\n            address(this),\n            _price\n        );\n    }\n\n    function getListingFee() public view returns (uint256) {\n        return LISTING_FEE;\n    }\n\n    function getListedNfts() public view returns (NFT[] memory) {\n        uint256 nftCount = _nftCount.current();\n        uint256 unsoldNftsCount = nftCount - _nftsSold.current();\n\n        NFT[] memory nfts = new NFT[](unsoldNftsCount);\n        uint nftsIndex = 0;\n        for (uint i = 0; i < nftCount; i++) {\n            if (_idToNFT[i + 1].listed) {\n                nfts[nftsIndex] = _idToNFT[i + 1];\n                nftsIndex++;\n            }\n        }\n        return nfts;\n    }\n\n    function getMyNfts() public view returns (NFT[] memory) {\n        uint nftCount = _nftCount.current();\n        uint myNftCount = 0;\n        for (uint i = 0; i < nftCount; i++) {\n            if (_idToNFT[i + 1].owner == msg.sender) {\n                myNftCount++;\n            }\n        }\n\n        NFT[] memory nfts = new NFT[](myNftCount);\n        uint nftsIndex = 0;\n        for (uint i = 0; i < nftCount; i++) {\n            if (_idToNFT[i + 1].owner == msg.sender) {\n                nfts[nftsIndex] = _idToNFT[i + 1];\n                nftsIndex++;\n            }\n        }\n        return nfts;\n    }\n\n    function getMyListedNft(uint256 nftId) public view returns (NFT memory) {\n\n      return _idToNFT[nftId];\n    }\n\n    function getMyListedNfts() public view returns (NFT[] memory) {\n        uint nftCount = _nftCount.current();\n        uint myListedNftCount = 0;\n        for (uint i = 0; i < nftCount; i++) {\n            if (\n                _idToNFT[i + 1].seller == msg.sender && _idToNFT[i + 1].listed\n            ) {\n                myListedNftCount++;\n            }\n        }\n\n        NFT[] memory nfts = new NFT[](myListedNftCount);\n        uint nftsIndex = 0;\n        for (uint i = 0; i < nftCount; i++) {\n            if (\n                _idToNFT[i + 1].seller == msg.sender && _idToNFT[i + 1].listed\n            ) {\n                nfts[nftsIndex] = _idToNFT[i + 1];\n                nftsIndex++;\n            }\n        }\n        return nfts;\n    }\n\n    function makeBet(\n        uint256 idToken,\n        string memory buyerPublicKey,\n        address buyerAddress,\n        string memory goalPurchase\n    ) public payable {\n        require(msg.value != 0, \"Rate must be more 0\");\n        uint256 buyerIndex = getBuyerIndex(idToken, buyerAddress);\n        if (\n            buyersBoard[idToken].length > 0 &&\n            buyersBoard[idToken][buyerIndex].buyerAddress == buyerAddress\n        ) {\n            uint256 newBet = buyersBoard[idToken][buyerIndex].buyerBet.add(\n                msg.value\n            );\n            buyersBoard[idToken][buyerIndex].buyerBet = newBet;\n        } else {\n            buyersBoard[idToken].push(\n                BuyerData({\n                    buyerAddress: buyerAddress,\n                    buyerPublicKey: buyerPublicKey,\n                    buyerBet: msg.value,\n                    goalOfPurchase: goalPurchase\n                })\n            );\n        }\n        emit BuyerMadeBet(idToken, buyerAddress, msg.value);\n    }\n\n    function getSellerById(uint256 idToken)\n        public\n        view\n        returns (SellerData[] memory)\n    {\n        SellerData[] storage sellers = sellersBoard[idToken];\n        return sellers;\n    }\n\n    function getCountSellers(uint256 idToken) public view returns (uint256) {\n        return sellersBoard[idToken].length;\n    }\n\n    function getCountBuyers(uint256 idToken) public view returns (uint256) {\n        return buyersBoard[idToken].length;\n    }\n\n    function getBuyersById(uint256 idToken)\n        public\n        view\n        returns (BuyerData[] memory)\n    {\n        BuyerData[] storage buyers = buyersBoard[idToken];\n        return buyers;\n    }\n\n    function buyerWithdrawBet(uint256 idToken) public {\n        uint256 buyerIndex = getBuyerIndex(idToken, msg.sender);\n        (bool succeed, bytes memory data) = msg.sender.call{\n            value: buyersBoard[idToken][buyerIndex].buyerBet\n        }(\"\");\n        require(succeed, \"Failed to withdraw Ether\");\n        emit BuyerWithdrewBet(\n            idToken,\n            msg.sender,\n            buyersBoard[idToken][buyerIndex].buyerBet\n        );\n        buyersBoard[idToken][buyerIndex].buyerBet = 0;\n    }\n\n    function sellerWithdrawSum(uint256 idToken) public {\n        uint256 sellerIndex = getSellerIndex(idToken, msg.sender);\n        (bool succeed, bytes memory data) = msg.sender.call{\n            value: sellersBoard[idToken][sellerIndex].sellerSum\n        }(\"\");\n        require(succeed, \"Failed to withdraw Ether\");\n        emit sellerWithdrewSum(\n            idToken,\n            msg.sender,\n            sellersBoard[idToken][sellerIndex].sellerSum\n        );\n        sellersBoard[idToken][sellerIndex].sellerSum = 0;\n    }\n\n    function acceptRateAndTransferToken( \n        uint256 idToken,\n        address buyerAddress,\n        bytes memory data\n    ) public { \n        uint256 buyerIndex = getBuyerIndex(idToken, buyerAddress);\n        uint256 sellerIndex = getSellerIndex(idToken, msg.sender); \n       encNftContract.transferTokenWithEncryption(buyerAddress, idToken, data);  \n        NFT storage nft = _idToNFT[idToken];\n        nft.seller = payable(buyerAddress);\n        nft.owner = payable(buyerAddress);\n        nft.listed = true;\n        nft.price = buyersBoard[idToken][buyerIndex].buyerBet;\n\n        // _nftsSold.decrement();\n        emit NFTListed(\n            address(encNftContract),\n            idToken,\n            buyerAddress,\n            buyerAddress,\n            buyersBoard[idToken][buyerIndex].buyerBet\n        );\n       \n        sellersBoard[idToken][sellerIndex].sellerSum = sellersBoard[idToken][\n            sellerIndex\n        ].sellerSum.add(buyersBoard[idToken][buyerIndex].buyerBet);\n        buyersBoard[idToken][buyerIndex].buyerBet = 0;\n        sellersBoard[idToken].push(\n            SellerData({\n                sellerAddress: buyerAddress,\n                deadline: block.timestamp.add(10**6),\n                sellerSum: 0\n            })\n        );\n        emit NewOwner(idToken, buyerAddress);\n    }\n\n    function getBuyerIndex(uint256 idToken, address buyerAddress)\n        public\n        view\n        returns (uint256 buyerIndex)\n    {\n        uint256 length = buyersBoard[idToken].length;\n\n        for (uint256 index; index < length; index++) {\n            if (buyersBoard[idToken][index].buyerAddress == buyerAddress) {\n                buyerIndex = index;\n            }\n        }\n        return buyerIndex;\n    }\n\n    function getSellerIndex(uint256 idToken, address sellerAddress)\n        public\n        view\n        returns (uint256 sellerIndex)\n    {\n        uint256 length = sellersBoard[idToken].length;\n\n        for (uint256 index; index < length; index++) {\n            if (sellersBoard[idToken][index].sellerAddress == sellerAddress) {\n                sellerIndex = index;\n            }\n        }\n        return sellerIndex;\n    }\n\n    function moveTokenForSell(uint256 idToken, string memory message, uint256 _price, address _nftContract) public payable nonReentrant { \n        require(msg.value == LISTING_FEE, \"Not enough ether for listing fee\");\n        address currentOwner = encNftContract.ownerOf(idToken);\n        require(\n            currentOwner == msg.sender,\n            \"The address has not own the token\"\n        );\n        _nftCount.increment();\n\n        _idToNFT[idToken] = NFT(\n            _nftContract,\n            idToken,\n            payable(msg.sender),\n            payable(msg.sender), // payable(address(this)),\n            _price,\n            true\n        );\n\n        emit NFTListed(\n            _nftContract,\n            idToken,\n            msg.sender,\n            msg.sender,\n            _price\n        );\n        sellersBoard[idToken].push(\n            SellerData({\n                sellerAddress: msg.sender,\n                deadline: block.timestamp.add(10**6),\n                sellerSum: 0\n            })\n        );\n        emit TokenForSell(idToken, msg.sender, message);\n    }\n\n    function removeTokenFromMarketPlace(uint256 idToken, string memory message)\n        public\n    {\n        // to do for burn case\n        emit TokenForSell(idToken, msg.sender, message);\n    }\n\n    function getOwnerInfo(uint256 _tokenId, address owner)\n        public\n        view\n        returns (string memory balance)\n    {\n        SellerData[] storage allHistorySellersInfo = sellersBoard[_tokenId];\n        uint256 historyLength = allHistorySellersInfo.length;\n        for (uint256 ind; ind < historyLength; ind++) {\n            if (allHistorySellersInfo[ind].sellerAddress == owner) {\n                balance = string(\n                    abi.encodePacked(\n                        balance,\n                        uint2str(allHistorySellersInfo[ind].sellerSum)\n                    )\n                );\n            }\n        }\n        return balance;\n    }\n\n    function uint2str(uint _i)\n        internal\n        pure\n        returns (string memory _uintAsString)\n    {\n        if (_i == 0) {\n            return \"0\";\n        }\n        uint j = _i;\n        uint len;\n        while (j != 0) {\n            len++;\n            j /= 10;\n        }\n        bytes memory bstr = new bytes(len);\n        uint k = len;\n        while (_i != 0) {\n            k = k - 1;\n            uint8 temp = (48 + uint8(_i - (_i / 10) * 10));\n            bytes1 b1 = bytes1(temp);\n            bstr[k] = b1;\n            _i /= 10;\n        }\n        return string(bstr);\n    }\n}\n",
  "sourcePath": "/home/dev/Documents/MY/HACKATHON/LivePeer/newLP/contracts/ethereum/Marketplace.sol",
  "compiler": {
    "name": "solc",
    "version": "0.8.13+commit.abaa5c0e.Emscripten.clang"
  },
  "schemaVersion": "3.4.10",
  "updatedAt": "2023-04-05T12:58:41.159Z",
  "networkType": "ethereum",
  "devdoc": {
    "kind": "dev",
    "methods": {},
    "version": 1
  },
  "userdoc": {
    "kind": "user",
    "methods": {},
    "version": 1
  }
}